{
  "_format": "hh-sol-artifact-1",
  "contractName": "LaunchpadERC1155",
  "sourceName": "contracts/LaunchpadERC1155.sol",
  "abi": [
    {
      "inputs": [
        {
          "internalType": "string",
          "name": "name_",
          "type": "string"
        },
        {
          "internalType": "string",
          "name": "symbol_",
          "type": "string"
        },
        {
          "internalType": "string",
          "name": "uri_",
          "type": "string"
        },
        {
          "internalType": "uint256",
          "name": "mintPrice_",
          "type": "uint256"
        },
        {
          "internalType": "uint256",
          "name": "maxSupply_",
          "type": "uint256"
        },
        {
          "internalType": "uint256",
          "name": "maxPerWallet_",
          "type": "uint256"
        },
        {
          "internalType": "uint256",
          "name": "mintStart_",
          "type": "uint256"
        },
        {
          "internalType": "uint256",
          "name": "mintEnd_",
          "type": "uint256"
        },
        {
          "internalType": "address",
          "name": "royaltyReceiver_",
          "type": "address"
        },
        {
          "internalType": "uint96",
          "name": "royaltyFeeNumerator_",
          "type": "uint96"
        },
        {
          "internalType": "bool",
          "name": "whitelistEnabled_",
          "type": "bool"
        }
      ],
      "stateMutability": "nonpayable",
      "type": "constructor"
    },
    {
      "anonymous": false,
      "inputs": [
        {
          "indexed": true,
          "internalType": "address",
          "name": "account",
          "type": "address"
        },
        {
          "indexed": true,
          "internalType": "address",
          "name": "operator",
          "type": "address"
        },
        {
          "indexed": false,
          "internalType": "bool",
          "name": "approved",
          "type": "bool"
        }
      ],
      "name": "ApprovalForAll",
      "type": "event"
    },
    {
      "anonymous": false,
      "inputs": [
        {
          "indexed": true,
          "internalType": "address",
          "name": "to",
          "type": "address"
        },
        {
          "indexed": false,
          "internalType": "uint256",
          "name": "amount",
          "type": "uint256"
        }
      ],
      "name": "FundsWithdrawn",
      "type": "event"
    },
    {
      "anonymous": false,
      "inputs": [
        {
          "indexed": true,
          "internalType": "address",
          "name": "minter",
          "type": "address"
        },
        {
          "indexed": false,
          "internalType": "uint256",
          "name": "tokenId",
          "type": "uint256"
        },
        {
          "indexed": false,
          "internalType": "uint256",
          "name": "amount",
          "type": "uint256"
        }
      ],
      "name": "Minted",
      "type": "event"
    },
    {
      "anonymous": false,
      "inputs": [
        {
          "indexed": true,
          "internalType": "address",
          "name": "previousOwner",
          "type": "address"
        },
        {
          "indexed": true,
          "internalType": "address",
          "name": "newOwner",
          "type": "address"
        }
      ],
      "name": "OwnershipTransferred",
      "type": "event"
    },
    {
      "anonymous": false,
      "inputs": [
        {
          "indexed": false,
          "internalType": "address",
          "name": "account",
          "type": "address"
        }
      ],
      "name": "Paused",
      "type": "event"
    },
    {
      "anonymous": false,
      "inputs": [
        {
          "indexed": true,
          "internalType": "address",
          "name": "operator",
          "type": "address"
        },
        {
          "indexed": true,
          "internalType": "address",
          "name": "from",
          "type": "address"
        },
        {
          "indexed": true,
          "internalType": "address",
          "name": "to",
          "type": "address"
        },
        {
          "indexed": false,
          "internalType": "uint256[]",
          "name": "ids",
          "type": "uint256[]"
        },
        {
          "indexed": false,
          "internalType": "uint256[]",
          "name": "values",
          "type": "uint256[]"
        }
      ],
      "name": "TransferBatch",
      "type": "event"
    },
    {
      "anonymous": false,
      "inputs": [
        {
          "indexed": true,
          "internalType": "address",
          "name": "operator",
          "type": "address"
        },
        {
          "indexed": true,
          "internalType": "address",
          "name": "from",
          "type": "address"
        },
        {
          "indexed": true,
          "internalType": "address",
          "name": "to",
          "type": "address"
        },
        {
          "indexed": false,
          "internalType": "uint256",
          "name": "id",
          "type": "uint256"
        },
        {
          "indexed": false,
          "internalType": "uint256",
          "name": "value",
          "type": "uint256"
        }
      ],
      "name": "TransferSingle",
      "type": "event"
    },
    {
      "anonymous": false,
      "inputs": [
        {
          "indexed": false,
          "internalType": "string",
          "name": "value",
          "type": "string"
        },
        {
          "indexed": true,
          "internalType": "uint256",
          "name": "id",
          "type": "uint256"
        }
      ],
      "name": "URI",
      "type": "event"
    },
    {
      "anonymous": false,
      "inputs": [
        {
          "indexed": false,
          "internalType": "address",
          "name": "account",
          "type": "address"
        }
      ],
      "name": "Unpaused",
      "type": "event"
    },
    {
      "inputs": [
        {
          "internalType": "address",
          "name": "account",
          "type": "address"
        },
        {
          "internalType": "uint256",
          "name": "id",
          "type": "uint256"
        }
      ],
      "name": "balanceOf",
      "outputs": [
        {
          "internalType": "uint256",
          "name": "",
          "type": "uint256"
        }
      ],
      "stateMutability": "view",
      "type": "function"
    },
    {
      "inputs": [
        {
          "internalType": "address[]",
          "name": "accounts",
          "type": "address[]"
        },
        {
          "internalType": "uint256[]",
          "name": "ids",
          "type": "uint256[]"
        }
      ],
      "name": "balanceOfBatch",
      "outputs": [
        {
          "internalType": "uint256[]",
          "name": "",
          "type": "uint256[]"
        }
      ],
      "stateMutability": "view",
      "type": "function"
    },
    {
      "inputs": [
        {
          "internalType": "address",
          "name": "account",
          "type": "address"
        },
        {
          "internalType": "address",
          "name": "operator",
          "type": "address"
        }
      ],
      "name": "isApprovedForAll",
      "outputs": [
        {
          "internalType": "bool",
          "name": "",
          "type": "bool"
        }
      ],
      "stateMutability": "view",
      "type": "function"
    },
    {
      "inputs": [],
      "name": "maxPerWallet",
      "outputs": [
        {
          "internalType": "uint256",
          "name": "",
          "type": "uint256"
        }
      ],
      "stateMutability": "view",
      "type": "function"
    },
    {
      "inputs": [],
      "name": "maxSupply",
      "outputs": [
        {
          "internalType": "uint256",
          "name": "",
          "type": "uint256"
        }
      ],
      "stateMutability": "view",
      "type": "function"
    },
    {
      "inputs": [
        {
          "internalType": "uint256",
          "name": "tokenId",
          "type": "uint256"
        },
        {
          "internalType": "uint256",
          "name": "amount",
          "type": "uint256"
        }
      ],
      "name": "mint",
      "outputs": [],
      "stateMutability": "payable",
      "type": "function"
    },
    {
      "inputs": [],
      "name": "mintEnd",
      "outputs": [
        {
          "internalType": "uint256",
          "name": "",
          "type": "uint256"
        }
      ],
      "stateMutability": "view",
      "type": "function"
    },
    {
      "inputs": [],
      "name": "mintPrice",
      "outputs": [
        {
          "internalType": "uint256",
          "name": "",
          "type": "uint256"
        }
      ],
      "stateMutability": "view",
      "type": "function"
    },
    {
      "inputs": [],
      "name": "mintStart",
      "outputs": [
        {
          "internalType": "uint256",
          "name": "",
          "type": "uint256"
        }
      ],
      "stateMutability": "view",
      "type": "function"
    },
    {
      "inputs": [
        {
          "internalType": "address",
          "name": "",
          "type": "address"
        }
      ],
      "name": "mintedPerWallet",
      "outputs": [
        {
          "internalType": "uint256",
          "name": "",
          "type": "uint256"
        }
      ],
      "stateMutability": "view",
      "type": "function"
    },
    {
      "inputs": [],
      "name": "name",
      "outputs": [
        {
          "internalType": "string",
          "name": "",
          "type": "string"
        }
      ],
      "stateMutability": "view",
      "type": "function"
    },
    {
      "inputs": [],
      "name": "owner",
      "outputs": [
        {
          "internalType": "address",
          "name": "",
          "type": "address"
        }
      ],
      "stateMutability": "view",
      "type": "function"
    },
    {
      "inputs": [],
      "name": "pause",
      "outputs": [],
      "stateMutability": "nonpayable",
      "type": "function"
    },
    {
      "inputs": [],
      "name": "paused",
      "outputs": [
        {
          "internalType": "bool",
          "name": "",
          "type": "bool"
        }
      ],
      "stateMutability": "view",
      "type": "function"
    },
    {
      "inputs": [],
      "name": "renounceOwnership",
      "outputs": [],
      "stateMutability": "nonpayable",
      "type": "function"
    },
    {
      "inputs": [
        {
          "internalType": "uint256",
          "name": "tokenId",
          "type": "uint256"
        },
        {
          "internalType": "uint256",
          "name": "salePrice",
          "type": "uint256"
        }
      ],
      "name": "royaltyInfo",
      "outputs": [
        {
          "internalType": "address",
          "name": "",
          "type": "address"
        },
        {
          "internalType": "uint256",
          "name": "",
          "type": "uint256"
        }
      ],
      "stateMutability": "view",
      "type": "function"
    },
    {
      "inputs": [
        {
          "internalType": "address",
          "name": "from",
          "type": "address"
        },
        {
          "internalType": "address",
          "name": "to",
          "type": "address"
        },
        {
          "internalType": "uint256[]",
          "name": "ids",
          "type": "uint256[]"
        },
        {
          "internalType": "uint256[]",
          "name": "amounts",
          "type": "uint256[]"
        },
        {
          "internalType": "bytes",
          "name": "data",
          "type": "bytes"
        }
      ],
      "name": "safeBatchTransferFrom",
      "outputs": [],
      "stateMutability": "nonpayable",
      "type": "function"
    },
    {
      "inputs": [
        {
          "internalType": "address",
          "name": "from",
          "type": "address"
        },
        {
          "internalType": "address",
          "name": "to",
          "type": "address"
        },
        {
          "internalType": "uint256",
          "name": "id",
          "type": "uint256"
        },
        {
          "internalType": "uint256",
          "name": "amount",
          "type": "uint256"
        },
        {
          "internalType": "bytes",
          "name": "data",
          "type": "bytes"
        }
      ],
      "name": "safeTransferFrom",
      "outputs": [],
      "stateMutability": "nonpayable",
      "type": "function"
    },
    {
      "inputs": [
        {
          "internalType": "address",
          "name": "operator",
          "type": "address"
        },
        {
          "internalType": "bool",
          "name": "approved",
          "type": "bool"
        }
      ],
      "name": "setApprovalForAll",
      "outputs": [],
      "stateMutability": "nonpayable",
      "type": "function"
    },
    {
      "inputs": [
        {
          "internalType": "uint256",
          "name": "maxPer",
          "type": "uint256"
        }
      ],
      "name": "setMaxPerWallet",
      "outputs": [],
      "stateMutability": "nonpayable",
      "type": "function"
    },
    {
      "inputs": [
        {
          "internalType": "uint256",
          "name": "supply",
          "type": "uint256"
        }
      ],
      "name": "setMaxSupply",
      "outputs": [],
      "stateMutability": "nonpayable",
      "type": "function"
    },
    {
      "inputs": [
        {
          "internalType": "uint256",
          "name": "price",
          "type": "uint256"
        }
      ],
      "name": "setMintPrice",
      "outputs": [],
      "stateMutability": "nonpayable",
      "type": "function"
    },
    {
      "inputs": [
        {
          "internalType": "uint256",
          "name": "start",
          "type": "uint256"
        },
        {
          "internalType": "uint256",
          "name": "end",
          "type": "uint256"
        }
      ],
      "name": "setMintWindow",
      "outputs": [],
      "stateMutability": "nonpayable",
      "type": "function"
    },
    {
      "inputs": [
        {
          "internalType": "string",
          "name": "newuri",
          "type": "string"
        }
      ],
      "name": "setURI",
      "outputs": [],
      "stateMutability": "nonpayable",
      "type": "function"
    },
    {
      "inputs": [
        {
          "internalType": "address[]",
          "name": "addrs",
          "type": "address[]"
        },
        {
          "internalType": "bool",
          "name": "enabled",
          "type": "bool"
        }
      ],
      "name": "setWhitelist",
      "outputs": [],
      "stateMutability": "nonpayable",
      "type": "function"
    },
    {
      "inputs": [
        {
          "internalType": "bool",
          "name": "enabled",
          "type": "bool"
        }
      ],
      "name": "setWhitelistEnabled",
      "outputs": [],
      "stateMutability": "nonpayable",
      "type": "function"
    },
    {
      "inputs": [
        {
          "internalType": "bytes4",
          "name": "interfaceId",
          "type": "bytes4"
        }
      ],
      "name": "supportsInterface",
      "outputs": [
        {
          "internalType": "bool",
          "name": "",
          "type": "bool"
        }
      ],
      "stateMutability": "view",
      "type": "function"
    },
    {
      "inputs": [],
      "name": "symbol",
      "outputs": [
        {
          "internalType": "string",
          "name": "",
          "type": "string"
        }
      ],
      "stateMutability": "view",
      "type": "function"
    },
    {
      "inputs": [
        {
          "internalType": "uint256",
          "name": "id",
          "type": "uint256"
        }
      ],
      "name": "totalSupply",
      "outputs": [
        {
          "internalType": "uint256",
          "name": "",
          "type": "uint256"
        }
      ],
      "stateMutability": "view",
      "type": "function"
    },
    {
      "inputs": [
        {
          "internalType": "address",
          "name": "newOwner",
          "type": "address"
        }
      ],
      "name": "transferOwnership",
      "outputs": [],
      "stateMutability": "nonpayable",
      "type": "function"
    },
    {
      "inputs": [],
      "name": "unpause",
      "outputs": [],
      "stateMutability": "nonpayable",
      "type": "function"
    },
    {
      "inputs": [
        {
          "internalType": "uint256",
          "name": "",
          "type": "uint256"
        }
      ],
      "name": "uri",
      "outputs": [
        {
          "internalType": "string",
          "name": "",
          "type": "string"
        }
      ],
      "stateMutability": "view",
      "type": "function"
    },
    {
      "inputs": [
        {
          "internalType": "address",
          "name": "",
          "type": "address"
        }
      ],
      "name": "whitelist",
      "outputs": [
        {
          "internalType": "bool",
          "name": "",
          "type": "bool"
        }
      ],
      "stateMutability": "view",
      "type": "function"
    },
    {
      "inputs": [],
      "name": "whitelistEnabled",
      "outputs": [
        {
          "internalType": "bool",
          "name": "",
          "type": "bool"
        }
      ],
      "stateMutability": "view",
      "type": "function"
    },
    {
      "inputs": [
        {
          "internalType": "address payable",
          "name": "to",
          "type": "address"
        }
      ],
      "name": "withdraw",
      "outputs": [],
      "stateMutability": "nonpayable",
      "type": "function"
    }
  ],
  "bytecode": "0x60806040523480156200001157600080fd5b5060405162002a9538038062002a95833981016040819052620000349162000357565b886200004081620000e3565b506200004c33620000f5565b6003805460ff60a01b191690556006620000678c82620004f1565b506007620000768b82620004f1565b5060088890556009879055600a869055600b859055600c849055600d805460ff19168215151790556001600160a01b03831615801590620000c057506000826001600160601b0316115b15620000d257620000d2838362000147565b5050505050505050505050620005bd565b6002620000f18282620004f1565b5050565b600380546001600160a01b038381166001600160a01b0319831681179093556040519116919082907f8be0079c531659141344cd1fd0a4f28419497f9722a3daafe3b4186f6b6457e090600090a35050565b6127106001600160601b0382161115620001bb5760405162461bcd60e51b815260206004820152602a60248201527f455243323938313a20726f79616c7479206665652077696c6c206578636565646044820152692073616c65507269636560b01b60648201526084015b60405180910390fd5b6001600160a01b038216620002135760405162461bcd60e51b815260206004820152601960248201527f455243323938313a20696e76616c6964207265636569766572000000000000006044820152606401620001b2565b604080518082019091526001600160a01b039092168083526001600160601b039091166020909201829052600160a01b90910217600455565b634e487b7160e01b600052604160045260246000fd5b600082601f8301126200027457600080fd5b81516001600160401b03808211156200029157620002916200024c565b604051601f8301601f19908116603f01168101908282118183101715620002bc57620002bc6200024c565b81604052838152602092508683858801011115620002d957600080fd5b600091505b83821015620002fd5785820183015181830184015290820190620002de565b600093810190920192909252949350505050565b80516001600160a01b03811681146200032957600080fd5b919050565b80516001600160601b03811681146200032957600080fd5b805180151581146200032957600080fd5b60008060008060008060008060008060006101608c8e0312156200037a57600080fd5b8b516001600160401b038111156200039157600080fd5b6200039f8e828f0162000262565b60208e0151909c5090506001600160401b03811115620003be57600080fd5b620003cc8e828f0162000262565b60408e0151909b5090506001600160401b03811115620003eb57600080fd5b620003f98e828f0162000262565b99505060608c0151975060808c0151965060a08c0151955060c08c0151945060e08c015193506200042e6101008d0162000311565b92506200043f6101208d016200032e565b9150620004506101408d0162000346565b90509295989b509295989b9093969950565b600181811c908216806200047757607f821691505b6020821081036200049857634e487b7160e01b600052602260045260246000fd5b50919050565b601f821115620004ec57600081815260208120601f850160051c81016020861015620004c75750805b601f850160051c820191505b81811015620004e857828155600101620004d3565b5050505b505050565b81516001600160401b038111156200050d576200050d6200024c565b62000525816200051e845462000462565b846200049e565b602080601f8311600181146200055d5760008415620005445750858301515b600019600386901b1c1916600185901b178555620004e8565b600085815260208120601f198616915b828110156200058e578886015182559484019460019091019084016200056d565b5085821015620005ad5787850151600019600388901b60f8161c191681555b5050505050600190811b01905550565b6124c880620005cd6000396000f3fe6080604052600436106102035760003560e01c806351fb012d11610118578063a22cb465116100a0578063e985e9c51161006f578063e985e9c5146105d8578063ea2b4ab214610621578063f242432a14610637578063f2fde38b14610657578063f4a0a5281461067757600080fd5b8063a22cb46514610562578063bd85b03914610582578063d5abeb01146105a2578063e268e4d3146105b857600080fd5b8063715018a6116100e7578063715018a6146104cb5780638456cb59146104e05780638da5cb5b146104f557806395d89b411461051d5780639b19251a1461053257600080fd5b806351fb012d1461045c5780635c975abb146104765780636817c76c146104955780636f8b44b0146104ab57600080fd5b8063255e46851161019b5780633c271a051161016a5780633c271a05146103c45780633f4ba83a146103e4578063453c2310146103f95780634e1273f41461040f57806351cff8d91461043c57600080fd5b8063255e4685146103225780632a55205a146103385780632eb2c2d6146103775780633a602b4d1461039757600080fd5b806306fdde03116101d757806306fdde03146102ad5780630e89341c146102cf5780630f867751146102ef5780631b2ef1ca1461030f57600080fd5b8062fdd58e1461020857806301ffc9a71461023b57806302fe53051461026b578063052d9e7e1461028d575b600080fd5b34801561021457600080fd5b506102286102233660046119f1565b610697565b6040519081526020015b60405180910390f35b34801561024757600080fd5b5061025b610256366004611a33565b610730565b6040519015158152602001610232565b34801561027757600080fd5b5061028b610286366004611af8565b61073b565b005b34801561029957600080fd5b5061028b6102a8366004611b5e565b61074f565b3480156102b957600080fd5b506102c261076a565b6040516102329190611bbf565b3480156102db57600080fd5b506102c26102ea366004611bd2565b6107f8565b3480156102fb57600080fd5b5061028b61030a366004611beb565b61088c565b61028b61031d366004611beb565b61089f565b34801561032e57600080fd5b50610228600b5481565b34801561034457600080fd5b50610358610353366004611beb565b610b21565b604080516001600160a01b039093168352602083019190915201610232565b34801561038357600080fd5b5061028b610392366004611cc2565b610bcd565b3480156103a357600080fd5b506102286103b2366004611d70565b600f6020526000908152604090205481565b3480156103d057600080fd5b5061028b6103df366004611d8d565b610c19565b3480156103f057600080fd5b5061028b610c98565b34801561040557600080fd5b50610228600a5481565b34801561041b57600080fd5b5061042f61042a366004611e11565b610caa565b6040516102329190611f19565b34801561044857600080fd5b5061028b610457366004611d70565b610dd4565b34801561046857600080fd5b50600d5461025b9060ff1681565b34801561048257600080fd5b50600354600160a01b900460ff1661025b565b3480156104a157600080fd5b5061022860085481565b3480156104b757600080fd5b5061028b6104c6366004611bd2565b610ef2565b3480156104d757600080fd5b5061028b610eff565b3480156104ec57600080fd5b5061028b610f11565b34801561050157600080fd5b506003546040516001600160a01b039091168152602001610232565b34801561052957600080fd5b506102c2610f21565b34801561053e57600080fd5b5061025b61054d366004611d70565b600e6020526000908152604090205460ff1681565b34801561056e57600080fd5b5061028b61057d366004611f2c565b610f2e565b34801561058e57600080fd5b5061022861059d366004611bd2565b610f3d565b3480156105ae57600080fd5b5061022860095481565b3480156105c457600080fd5b5061028b6105d3366004611bd2565b610f49565b3480156105e457600080fd5b5061025b6105f3366004611f61565b6001600160a01b03918216600090815260016020908152604080832093909416825291909152205460ff1690565b34801561062d57600080fd5b50610228600c5481565b34801561064357600080fd5b5061028b610652366004611f9a565b610f56565b34801561066357600080fd5b5061028b610672366004611d70565b610f9b565b34801561068357600080fd5b5061028b610692366004611bd2565b611011565b60006001600160a01b0383166107075760405162461bcd60e51b815260206004820152602a60248201527f455243313135353a2061646472657373207a65726f206973206e6f742061207660448201526930b634b21037bbb732b960b11b60648201526084015b60405180910390fd5b506000818152602081815260408083206001600160a01b03861684529091529020545b92915050565b600061072a8261101e565b610743611043565b61074c8161109d565b50565b610757611043565b600d805460ff1916911515919091179055565b6006805461077790612003565b80601f01602080910402602001604051908101604052809291908181526020018280546107a390612003565b80156107f05780601f106107c5576101008083540402835291602001916107f0565b820191906000526020600020905b8154815290600101906020018083116107d357829003601f168201915b505050505081565b60606002805461080790612003565b80601f016020809104026020016040519081016040528092919081815260200182805461083390612003565b80156108805780601f1061085557610100808354040283529160200191610880565b820191906000526020600020905b81548152906001019060200180831161086357829003601f168201915b50505050509050919050565b610894611043565b600b91909155600c55565b6108a76110a9565b600b544210156108ec5760405162461bcd60e51b815260206004820152601060248201526f135a5b9d081b9bdd081cdd185c9d195960821b60448201526064016106fe565b600c5415806108fd5750600c544211155b6109365760405162461bcd60e51b815260206004820152600a602482015269135a5b9d08195b99195960b21b60448201526064016106fe565b6009548161094384610f3d565b61094d9190612053565b11156109905760405162461bcd60e51b815260206004820152601260248201527145786365656473206d617820737570706c7960701b60448201526064016106fe565b600a54336000908152600f60205260409020546109ae908390612053565b11156109f35760405162461bcd60e51b8152602060048201526014602482015273115e18d959591cc81dd85b1b195d081b1a5b5a5d60621b60448201526064016106fe565b80600854610a019190612066565b341015610a475760405162461bcd60e51b8152602060048201526014602482015273125b9cdd59999a58da595b9d081c185e5b595b9d60621b60448201526064016106fe565b600d5460ff1615610aa357336000908152600e602052604090205460ff16610aa35760405162461bcd60e51b815260206004820152600f60248201526e139bdd081dda1a5d195b1a5cdd1959608a1b60448201526064016106fe565b610abe338383604051806020016040528060008152506110f6565b336000908152600f602052604081208054839290610add908490612053565b9091555050604080518381526020810183905233917f25b428dfde728ccfaddad7e29e4ac23c24ed7fd1a6e3e3f91894a9a073f5dfff910160405180910390a25050565b60008281526005602090815260408083208151808301909252546001600160a01b038116808352600160a01b9091046001600160601b0316928201929092528291610b965750604080518082019091526004546001600160a01b0381168252600160a01b90046001600160601b031660208201525b602081015160009061271090610bb5906001600160601b031687612066565b610bbf919061207d565b915196919550909350505050565b6001600160a01b038516331480610be95750610be985336105f3565b610c055760405162461bcd60e51b81526004016106fe9061209f565b610c12858585858561120a565b5050505050565b610c21611043565b60005b82811015610c925781600e6000868685818110610c4357610c436120ed565b9050602002016020810190610c589190611d70565b6001600160a01b031681526020810191909152604001600020805460ff191691151591909117905580610c8a81612103565b915050610c24565b50505050565b610ca0611043565b610ca86113e7565b565b60608151835114610d0f5760405162461bcd60e51b815260206004820152602960248201527f455243313135353a206163636f756e747320616e6420696473206c656e677468604482015268040dad2e6dac2e8c6d60bb1b60648201526084016106fe565b6000835167ffffffffffffffff811115610d2b57610d2b611a57565b604051908082528060200260200182016040528015610d54578160200160208202803683370190505b50905060005b8451811015610dcc57610d9f858281518110610d7857610d786120ed565b6020026020010151858381518110610d9257610d926120ed565b6020026020010151610697565b828281518110610db157610db16120ed565b6020908102919091010152610dc581612103565b9050610d5a565b509392505050565b610ddc611043565b4780610e155760405162461bcd60e51b81526020600482015260086024820152674e6f2066756e647360c01b60448201526064016106fe565b6000826001600160a01b03168260405160006040518083038185875af1925050503d8060008114610e62576040519150601f19603f3d011682016040523d82523d6000602084013e610e67565b606091505b5050905080610eaa5760405162461bcd60e51b815260206004820152600f60248201526e15da5d1a191c985dc819985a5b1959608a1b60448201526064016106fe565b826001600160a01b03167feaff4b37086828766ad3268786972c0cd24259d4c87a80f9d3963a3c3d999b0d83604051610ee591815260200190565b60405180910390a2505050565b610efa611043565b600955565b610f07611043565b610ca8600061143c565b610f19611043565b610ca861148e565b6007805461077790612003565b610f393383836114d1565b5050565b600061072a3083610697565b610f51611043565b600a55565b6001600160a01b038516331480610f725750610f7285336105f3565b610f8e5760405162461bcd60e51b81526004016106fe9061209f565b610c1285858585856115b1565b610fa3611043565b6001600160a01b0381166110085760405162461bcd60e51b815260206004820152602660248201527f4f776e61626c653a206e6577206f776e657220697320746865207a65726f206160448201526564647265737360d01b60648201526084016106fe565b61074c8161143c565b611019611043565b600855565b60006001600160e01b0319821663152a902d60e11b148061072a575061072a826116db565b6003546001600160a01b03163314610ca85760405162461bcd60e51b815260206004820181905260248201527f4f776e61626c653a2063616c6c6572206973206e6f7420746865206f776e657260448201526064016106fe565b6002610f398282612167565b600354600160a01b900460ff1615610ca85760405162461bcd60e51b815260206004820152601060248201526f14185d5cd8589b194e881c185d5cd95960821b60448201526064016106fe565b6001600160a01b0384166111565760405162461bcd60e51b815260206004820152602160248201527f455243313135353a206d696e7420746f20746865207a65726f206164647265736044820152607360f81b60648201526084016106fe565b3360006111628561172b565b9050600061116f8561172b565b90506000868152602081815260408083206001600160a01b038b168452909152812080548792906111a1908490612053565b909155505060408051878152602081018790526001600160a01b03808a1692600092918716917fc3d58168c5ae7397731d063d5bbf3d657854427343f4c083240f7aacaa2d0f62910160405180910390a461120183600089898989611776565b50505050505050565b815183511461126c5760405162461bcd60e51b815260206004820152602860248201527f455243313135353a2069647320616e6420616d6f756e7473206c656e677468206044820152670dad2e6dac2e8c6d60c31b60648201526084016106fe565b6001600160a01b0384166112925760405162461bcd60e51b81526004016106fe90612227565b3360005b84518110156113795760008582815181106112b3576112b36120ed565b6020026020010151905060008583815181106112d1576112d16120ed565b602090810291909101810151600084815280835260408082206001600160a01b038e1683529093529190912054909150818110156113215760405162461bcd60e51b81526004016106fe9061226c565b6000838152602081815260408083206001600160a01b038e8116855292528083208585039055908b1682528120805484929061135e908490612053565b925050819055505050508061137290612103565b9050611296565b50846001600160a01b0316866001600160a01b0316826001600160a01b03167f4a39dc06d4c0dbc64b70af90fd698a233a518aa5d07e595d983b8c0526c8f7fb87876040516113c99291906122b6565b60405180910390a46113df8187878787876118d1565b505050505050565b6113ef61198c565b6003805460ff60a01b191690557f5db9ee0a495bf2e6ff9c91a7834c1ba4fdd244a5e8aa4e537bd38aeae4b073aa335b6040516001600160a01b03909116815260200160405180910390a1565b600380546001600160a01b038381166001600160a01b0319831681179093556040519116919082907f8be0079c531659141344cd1fd0a4f28419497f9722a3daafe3b4186f6b6457e090600090a35050565b6114966110a9565b6003805460ff60a01b1916600160a01b1790557f62e78cea01bee320cd4e420270b5ea74000d11b0c9f74754ebdbfc544b05a25861141f3390565b816001600160a01b0316836001600160a01b0316036115445760405162461bcd60e51b815260206004820152602960248201527f455243313135353a2073657474696e6720617070726f76616c20737461747573604482015268103337b91039b2b63360b91b60648201526084016106fe565b6001600160a01b03838116600081815260016020908152604080832094871680845294825291829020805460ff191686151590811790915591519182527f17307eab39ab6107e8899845ad3d59bd9653f200f220920489ca2b5937696c31910160405180910390a3505050565b6001600160a01b0384166115d75760405162461bcd60e51b81526004016106fe90612227565b3360006115e38561172b565b905060006115f08561172b565b90506000868152602081815260408083206001600160a01b038c168452909152902054858110156116335760405162461bcd60e51b81526004016106fe9061226c565b6000878152602081815260408083206001600160a01b038d8116855292528083208985039055908a16825281208054889290611670908490612053565b909155505060408051888152602081018890526001600160a01b03808b16928c821692918816917fc3d58168c5ae7397731d063d5bbf3d657854427343f4c083240f7aacaa2d0f62910160405180910390a46116d0848a8a8a8a8a611776565b505050505050505050565b60006001600160e01b03198216636cdb3d1360e11b148061170c57506001600160e01b031982166303a24d0760e21b145b8061072a57506301ffc9a760e01b6001600160e01b031983161461072a565b60408051600180825281830190925260609160009190602080830190803683370190505090508281600081518110611765576117656120ed565b602090810291909101015292915050565b6001600160a01b0384163b156113df5760405163f23a6e6160e01b81526001600160a01b0385169063f23a6e61906117ba90899089908890889088906004016122e4565b6020604051808303816000875af19250505080156117f5575060408051601f3d908101601f191682019092526117f291810190612329565b60015b6118a157611801612346565b806308c379a00361183a5750611815612362565b80611820575061183c565b8060405162461bcd60e51b81526004016106fe9190611bbf565b505b60405162461bcd60e51b815260206004820152603460248201527f455243313135353a207472616e7366657220746f206e6f6e2d455243313135356044820152732932b1b2b4bb32b91034b6b83632b6b2b73a32b960611b60648201526084016106fe565b6001600160e01b0319811663f23a6e6160e01b146112015760405162461bcd60e51b81526004016106fe906123ec565b6001600160a01b0384163b156113df5760405163bc197c8160e01b81526001600160a01b0385169063bc197c81906119159089908990889088908890600401612434565b6020604051808303816000875af1925050508015611950575060408051601f3d908101601f1916820190925261194d91810190612329565b60015b61195c57611801612346565b6001600160e01b0319811663bc197c8160e01b146112015760405162461bcd60e51b81526004016106fe906123ec565b600354600160a01b900460ff16610ca85760405162461bcd60e51b815260206004820152601460248201527314185d5cd8589b194e881b9bdd081c185d5cd95960621b60448201526064016106fe565b6001600160a01b038116811461074c57600080fd5b60008060408385031215611a0457600080fd5b8235611a0f816119dc565b946020939093013593505050565b6001600160e01b03198116811461074c57600080fd5b600060208284031215611a4557600080fd5b8135611a5081611a1d565b9392505050565b634e487b7160e01b600052604160045260246000fd5b601f8201601f1916810167ffffffffffffffff81118282101715611a9357611a93611a57565b6040525050565b600067ffffffffffffffff831115611ab457611ab4611a57565b604051611acb601f8501601f191660200182611a6d565b809150838152848484011115611ae057600080fd5b83836020830137600060208583010152509392505050565b600060208284031215611b0a57600080fd5b813567ffffffffffffffff811115611b2157600080fd5b8201601f81018413611b3257600080fd5b611b4184823560208401611a9a565b949350505050565b80358015158114611b5957600080fd5b919050565b600060208284031215611b7057600080fd5b611a5082611b49565b6000815180845260005b81811015611b9f57602081850181015186830182015201611b83565b506000602082860101526020601f19601f83011685010191505092915050565b602081526000611a506020830184611b79565b600060208284031215611be457600080fd5b5035919050565b60008060408385031215611bfe57600080fd5b50508035926020909101359150565b600067ffffffffffffffff821115611c2757611c27611a57565b5060051b60200190565b600082601f830112611c4257600080fd5b81356020611c4f82611c0d565b604051611c5c8282611a6d565b83815260059390931b8501820192828101915086841115611c7c57600080fd5b8286015b84811015611c975780358352918301918301611c80565b509695505050505050565b600082601f830112611cb357600080fd5b611a5083833560208501611a9a565b600080600080600060a08688031215611cda57600080fd5b8535611ce5816119dc565b94506020860135611cf5816119dc565b9350604086013567ffffffffffffffff80821115611d1257600080fd5b611d1e89838a01611c31565b94506060880135915080821115611d3457600080fd5b611d4089838a01611c31565b93506080880135915080821115611d5657600080fd5b50611d6388828901611ca2565b9150509295509295909350565b600060208284031215611d8257600080fd5b8135611a50816119dc565b600080600060408486031215611da257600080fd5b833567ffffffffffffffff80821115611dba57600080fd5b818601915086601f830112611dce57600080fd5b813581811115611ddd57600080fd5b8760208260051b8501011115611df257600080fd5b602092830195509350611e089186019050611b49565b90509250925092565b60008060408385031215611e2457600080fd5b823567ffffffffffffffff80821115611e3c57600080fd5b818501915085601f830112611e5057600080fd5b81356020611e5d82611c0d565b604051611e6a8282611a6d565b83815260059390931b8501820192828101915089841115611e8a57600080fd5b948201945b83861015611eb1578535611ea2816119dc565b82529482019490820190611e8f565b96505086013592505080821115611ec757600080fd5b50611ed485828601611c31565b9150509250929050565b600081518084526020808501945080840160005b83811015611f0e57815187529582019590820190600101611ef2565b509495945050505050565b602081526000611a506020830184611ede565b60008060408385031215611f3f57600080fd5b8235611f4a816119dc565b9150611f5860208401611b49565b90509250929050565b60008060408385031215611f7457600080fd5b8235611f7f816119dc565b91506020830135611f8f816119dc565b809150509250929050565b600080600080600060a08688031215611fb257600080fd5b8535611fbd816119dc565b94506020860135611fcd816119dc565b93506040860135925060608601359150608086013567ffffffffffffffff811115611ff757600080fd5b611d6388828901611ca2565b600181811c9082168061201757607f821691505b60208210810361203757634e487b7160e01b600052602260045260246000fd5b50919050565b634e487b7160e01b600052601160045260246000fd5b8082018082111561072a5761072a61203d565b808202811582820484141761072a5761072a61203d565b60008261209a57634e487b7160e01b600052601260045260246000fd5b500490565b6020808252602e908201527f455243313135353a2063616c6c6572206973206e6f7420746f6b656e206f776e60408201526d195c881bdc88185c1c1c9bdd995960921b606082015260800190565b634e487b7160e01b600052603260045260246000fd5b6000600182016121155761211561203d565b5060010190565b601f82111561216257600081815260208120601f850160051c810160208610156121435750805b601f850160051c820191505b818110156113df5782815560010161214f565b505050565b815167ffffffffffffffff81111561218157612181611a57565b6121958161218f8454612003565b8461211c565b602080601f8311600181146121ca57600084156121b25750858301515b600019600386901b1c1916600185901b1785556113df565b600085815260208120601f198616915b828110156121f9578886015182559484019460019091019084016121da565b50858210156122175787850151600019600388901b60f8161c191681555b5050505050600190811b01905550565b60208082526025908201527f455243313135353a207472616e7366657220746f20746865207a65726f206164604082015264647265737360d81b606082015260800190565b6020808252602a908201527f455243313135353a20696e73756666696369656e742062616c616e636520666f60408201526939103a3930b739b332b960b11b606082015260800190565b6040815260006122c96040830185611ede565b82810360208401526122db8185611ede565b95945050505050565b6001600160a01b03868116825285166020820152604081018490526060810183905260a06080820181905260009061231e90830184611b79565b979650505050505050565b60006020828403121561233b57600080fd5b8151611a5081611a1d565b600060033d111561235f5760046000803e5060005160e01c5b90565b600060443d10156123705790565b6040516003193d81016004833e81513d67ffffffffffffffff81602484011181841117156123a057505050505090565b82850191508151818111156123b85750505050505090565b843d87010160208285010111156123d25750505050505090565b6123e160208286010187611a6d565b509095945050505050565b60208082526028908201527f455243313135353a204552433131353552656365697665722072656a656374656040820152676420746f6b656e7360c01b606082015260800190565b6001600160a01b0386811682528516602082015260a06040820181905260009061246090830186611ede565b82810360608401526124728186611ede565b905082810360808401526124868185611b79565b9897505050505050505056fea2646970667358221220962d561eb7d13241b67e37ee34a2a0948e9ebd6a5b919a6bb2c2788529db024164736f6c63430008140033",
  "linkReferences": {},
  "deployedLinkReferences": {}
}