{
  "_format": "hh-sol-artifact-1",
  "contractName": "LaunchpadFactory",
  "sourceName": "contracts/LaunchpadFactory.sol",
  "abi": [
    {
      "inputs": [
        {
          "internalType": "address",
          "name": "_erc721Impl",
          "type": "address"
        },
        {
          "internalType": "address",
          "name": "_erc1155Impl",
          "type": "address"
        }
      ],
      "stateMutability": "nonpayable",
      "type": "constructor"
    },
    {
      "anonymous": false,
      "inputs": [
        {
          "indexed": true,
          "internalType": "address",
          "name": "creator",
          "type": "address"
        },
        {
          "indexed": false,
          "internalType": "address",
          "name": "collection",
          "type": "address"
        },
        {
          "indexed": false,
          "internalType": "string",
          "name": "name",
          "type": "string"
        },
        {
          "indexed": false,
          "internalType": "string",
          "name": "symbol",
          "type": "string"
        }
      ],
      "name": "ERC1155CollectionCreated",
      "type": "event"
    },
    {
      "anonymous": false,
      "inputs": [
        {
          "indexed": true,
          "internalType": "address",
          "name": "creator",
          "type": "address"
        },
        {
          "indexed": false,
          "internalType": "address",
          "name": "collection",
          "type": "address"
        },
        {
          "indexed": false,
          "internalType": "string",
          "name": "name",
          "type": "string"
        },
        {
          "indexed": false,
          "internalType": "string",
          "name": "symbol",
          "type": "string"
        }
      ],
      "name": "ERC721CollectionCreated",
      "type": "event"
    },
    {
      "inputs": [
        {
          "internalType": "string",
          "name": "name_",
          "type": "string"
        },
        {
          "internalType": "string",
          "name": "symbol_",
          "type": "string"
        },
        {
          "internalType": "string",
          "name": "uri_",
          "type": "string"
        },
        {
          "internalType": "uint256",
          "name": "mintPrice_",
          "type": "uint256"
        },
        {
          "internalType": "uint256",
          "name": "maxSupply_",
          "type": "uint256"
        },
        {
          "internalType": "uint256",
          "name": "maxPerWallet_",
          "type": "uint256"
        },
        {
          "internalType": "uint256",
          "name": "mintStart_",
          "type": "uint256"
        },
        {
          "internalType": "uint256",
          "name": "mintEnd_",
          "type": "uint256"
        },
        {
          "internalType": "address",
          "name": "royaltyReceiver_",
          "type": "address"
        },
        {
          "internalType": "uint96",
          "name": "royaltyFeeNumerator_",
          "type": "uint96"
        },
        {
          "internalType": "bool",
          "name": "whitelistEnabled_",
          "type": "bool"
        }
      ],
      "name": "createERC1155Collection",
      "outputs": [
        {
          "internalType": "address",
          "name": "",
          "type": "address"
        }
      ],
      "stateMutability": "nonpayable",
      "type": "function"
    },
    {
      "inputs": [
        {
          "internalType": "string",
          "name": "name_",
          "type": "string"
        },
        {
          "internalType": "string",
          "name": "symbol_",
          "type": "string"
        },
        {
          "internalType": "string",
          "name": "baseTokenURI_",
          "type": "string"
        },
        {
          "internalType": "uint256",
          "name": "mintPrice_",
          "type": "uint256"
        },
        {
          "internalType": "uint256",
          "name": "maxSupply_",
          "type": "uint256"
        },
        {
          "internalType": "uint256",
          "name": "maxPerWallet_",
          "type": "uint256"
        },
        {
          "internalType": "uint256",
          "name": "mintStart_",
          "type": "uint256"
        },
        {
          "internalType": "uint256",
          "name": "mintEnd_",
          "type": "uint256"
        },
        {
          "internalType": "address",
          "name": "royaltyReceiver_",
          "type": "address"
        },
        {
          "internalType": "uint96",
          "name": "royaltyFeeNumerator_",
          "type": "uint96"
        },
        {
          "internalType": "bool",
          "name": "whitelistEnabled_",
          "type": "bool"
        }
      ],
      "name": "createERC721Collection",
      "outputs": [
        {
          "internalType": "address",
          "name": "",
          "type": "address"
        }
      ],
      "stateMutability": "nonpayable",
      "type": "function"
    },
    {
      "inputs": [],
      "name": "erc1155Implementation",
      "outputs": [
        {
          "internalType": "address",
          "name": "",
          "type": "address"
        }
      ],
      "stateMutability": "view",
      "type": "function"
    },
    {
      "inputs": [],
      "name": "erc721Implementation",
      "outputs": [
        {
          "internalType": "address",
          "name": "",
          "type": "address"
        }
      ],
      "stateMutability": "view",
      "type": "function"
    },
    {
      "inputs": [],
      "name": "owner",
      "outputs": [
        {
          "internalType": "address",
          "name": "",
          "type": "address"
        }
      ],
      "stateMutability": "view",
      "type": "function"
    },
    {
      "inputs": [
        {
          "internalType": "address",
          "name": "impl",
          "type": "address"
        }
      ],
      "name": "setERC1155Implementation",
      "outputs": [],
      "stateMutability": "nonpayable",
      "type": "function"
    },
    {
      "inputs": [
        {
          "internalType": "address",
          "name": "impl",
          "type": "address"
        }
      ],
      "name": "setERC721Implementation",
      "outputs": [],
      "stateMutability": "nonpayable",
      "type": "function"
    }
  ],
  "bytecode": "0x608060405234801561001057600080fd5b5060405161601638038061601683398101604081905261002f91610087565b600080546001600160a01b03199081163317909155600180546001600160a01b03948516908316179055600280549290931691161790556100ba565b80516001600160a01b038116811461008257600080fd5b919050565b6000806040838503121561009a57600080fd5b6100a38361006b565b91506100b16020840161006b565b90509250929050565b615f4d806100c96000396000f3fe60806040523480156200001157600080fd5b5060043610620000875760003560e01c80636e204c4111620000625780636e204c4114620000ec5780637d2405bb14620001005780638da5cb5b1462000117578063fb02ed7c146200012b57600080fd5b8063282d5b44146200008c5780634a80a31914620000bf578063641254bd14620000d3575b600080fd5b620000a36200009d3660046200051e565b62000142565b6040516001600160a01b03909116815260200160405180910390f35b600154620000a3906001600160a01b031681565b620000ea620000e43660046200061d565b62000247565b005b600254620000a3906001600160a01b031681565b620000ea620001113660046200061d565b620002b5565b600054620000a3906001600160a01b031681565b620000a36200013c3660046200051e565b6200031f565b6000808c8c8c8c8c8c8c8c8c8c8c6040516200015e906200040c565b620001749b9a999897969594939291906200068a565b604051809103906000f08015801562000191573d6000803e3d6000fd5b5060405163f2fde38b60e01b81523360048201529091506001600160a01b0382169063f2fde38b90602401600060405180830381600087803b158015620001d757600080fd5b505af1158015620001ec573d6000803e3d6000fd5b50505050336001600160a01b03167f4fae3f941ea0630e371b1e9c20001ed130face19a9c1c13dab3fb8f3d057a1be828f8f6040516200022f9392919062000729565b60405180910390a29c9b505050505050505050505050565b6000546001600160a01b03163314620002935760405162461bcd60e51b81526020600482015260096024820152682737ba1037bbb732b960b91b60448201526064015b60405180910390fd5b600180546001600160a01b0319166001600160a01b0392909216919091179055565b6000546001600160a01b03163314620002fd5760405162461bcd60e51b81526020600482015260096024820152682737ba1037bbb732b960b91b60448201526064016200028a565b600280546001600160a01b0319166001600160a01b0392909216919091179055565b6000808c8c8c8c8c8c8c8c8c8c8c6040516200033b906200041a565b620003519b9a999897969594939291906200068a565b604051809103906000f0801580156200036e573d6000803e3d6000fd5b5060405163f2fde38b60e01b81523360048201529091506001600160a01b0382169063f2fde38b90602401600060405180830381600087803b158015620003b457600080fd5b505af1158015620003c9573d6000803e3d6000fd5b50505050336001600160a01b03167fb8d38ee889b4832c0b11182ed7f688ede66934feb0909fa9ff2b2956cb909959828f8f6040516200022f9392919062000729565b612d15806200076e83390190565b612a95806200348383390190565b634e487b7160e01b600052604160045260246000fd5b600082601f8301126200045057600080fd5b813567ffffffffffffffff808211156200046e576200046e62000428565b604051601f8301601f19908116603f0116810190828211818310171562000499576200049962000428565b81604052838152866020858801011115620004b357600080fd5b836020870160208301376000602085830101528094505050505092915050565b80356001600160a01b0381168114620004eb57600080fd5b919050565b80356bffffffffffffffffffffffff81168114620004eb57600080fd5b80358015158114620004eb57600080fd5b60008060008060008060008060008060006101608c8e0312156200054157600080fd5b67ffffffffffffffff808d3511156200055957600080fd5b620005688e8e358f016200043e565b9b508060208e013511156200057c57600080fd5b6200058e8e60208f01358f016200043e565b9a508060408e01351115620005a257600080fd5b50620005b58d60408e01358e016200043e565b985060608c0135975060808c0135965060a08c0135955060c08c0135945060e08c01359350620005e96101008d01620004d3565b9250620005fa6101208d01620004f0565b91506200060b6101408d016200050d565b90509295989b509295989b9093969950565b6000602082840312156200063057600080fd5b6200063b82620004d3565b9392505050565b6000815180845260005b818110156200066a576020818501810151868301820152016200064c565b506000602082860101526020601f19601f83011685010191505092915050565b6000610160808352620006a08184018f62000642565b90508281036020840152620006b6818e62000642565b90508281036040840152620006cc818d62000642565b606084019b909b525050608081019790975260a087019590955260c086019390935260e08501919091526001600160a01b03166101008401526bffffffffffffffffffffffff166101208301521515610140909101529392505050565b6001600160a01b03841681526060602082018190526000906200074f9083018562000642565b828103604084015262000763818562000642565b969550505050505056fe60806040523480156200001157600080fd5b5060405162002d1538038062002d1583398101604081905262000034916200035e565b8a8a6000620000448382620004f8565b506001620000538282620004f8565b505050620000706200006a620000f860201b60201c565b620000fc565b600a805460ff60a01b19169055600d6200008b8a82620004f8565b50600e889055600f8790556010869055601185905560128490556013805460ff19168215151790556001600160a01b03831615801590620000d557506000826001600160601b0316115b15620000e757620000e783836200014e565b5050505050505050505050620005c4565b3390565b600a80546001600160a01b038381166001600160a01b0319831681179093556040519116919082907f8be0079c531659141344cd1fd0a4f28419497f9722a3daafe3b4186f6b6457e090600090a35050565b6127106001600160601b0382161115620001c25760405162461bcd60e51b815260206004820152602a60248201527f455243323938313a20726f79616c7479206665652077696c6c206578636565646044820152692073616c65507269636560b01b60648201526084015b60405180910390fd5b6001600160a01b0382166200021a5760405162461bcd60e51b815260206004820152601960248201527f455243323938313a20696e76616c6964207265636569766572000000000000006044820152606401620001b9565b604080518082019091526001600160a01b039092168083526001600160601b039091166020909201829052600160a01b90910217600b55565b634e487b7160e01b600052604160045260246000fd5b600082601f8301126200027b57600080fd5b81516001600160401b038082111562000298576200029862000253565b604051601f8301601f19908116603f01168101908282118183101715620002c357620002c362000253565b81604052838152602092508683858801011115620002e057600080fd5b600091505b83821015620003045785820183015181830184015290820190620002e5565b600093810190920192909252949350505050565b80516001600160a01b03811681146200033057600080fd5b919050565b80516001600160601b03811681146200033057600080fd5b805180151581146200033057600080fd5b60008060008060008060008060008060006101608c8e0312156200038157600080fd5b8b516001600160401b038111156200039857600080fd5b620003a68e828f0162000269565b60208e0151909c5090506001600160401b03811115620003c557600080fd5b620003d38e828f0162000269565b60408e0151909b5090506001600160401b03811115620003f257600080fd5b620004008e828f0162000269565b99505060608c0151975060808c0151965060a08c0151955060c08c0151945060e08c01519350620004356101008d0162000318565b9250620004466101208d0162000335565b9150620004576101408d016200034d565b90509295989b509295989b9093969950565b600181811c908216806200047e57607f821691505b6020821081036200049f57634e487b7160e01b600052602260045260246000fd5b50919050565b601f821115620004f357600081815260208120601f850160051c81016020861015620004ce5750805b601f850160051c820191505b81811015620004ef57828155600101620004da565b5050505b505050565b81516001600160401b0381111562000514576200051462000253565b6200052c8162000525845462000469565b84620004a5565b602080601f8311600181146200056457600084156200054b5750858301515b600019600386901b1c1916600185901b178555620004ef565b600085815260208120601f198616915b82811015620005955788860151825594840194600190910190840162000574565b5085821015620005b45787850151600019600388901b60f8161c191681555b5050505050600190811b01905550565b61274180620005d46000396000f3fe60806040526004361061023b5760003560e01c80635c975abb1161012e578063a0712d68116100ab578063e268e4d31161006f578063e268e4d3146106a2578063e985e9c5146106c2578063ea2b4ab21461070b578063f2fde38b14610721578063f4a0a5281461074157600080fd5b8063a0712d6814610619578063a22cb4651461062c578063b88d4fde1461064c578063c87b56dd1461066c578063d5abeb011461068c57600080fd5b8063715018a6116100f2578063715018a61461058c5780638456cb59146105a15780638da5cb5b146105b657806395d89b41146105d45780639b19251a146105e957600080fd5b80635c975abb146104f75780636352211e146105165780636817c76c146105365780636f8b44b01461054c57806370a082311461056c57600080fd5b80632f745c59116101bc578063453c231011610180578063453c2310146104675780634f6ccce71461047d57806351cff8d91461049d57806351fb012d146104bd57806355f804b3146104d757600080fd5b80632f745c59146103c55780633a602b4d146103e55780633c271a05146104125780633f4ba83a1461043257806342842e0e1461044757600080fd5b80630f867751116102035780630f8677511461031157806318160ddd1461033157806323b872dd14610350578063255e4685146103705780632a55205a1461038657600080fd5b806301ffc9a714610240578063052d9e7e1461027557806306fdde0314610297578063081812fc146102b9578063095ea7b3146102f1575b600080fd5b34801561024c57600080fd5b5061026061025b366004611fcb565b610761565b60405190151581526020015b60405180910390f35b34801561028157600080fd5b50610295610290366004611ffd565b610772565b005b3480156102a357600080fd5b506102ac61078d565b60405161026c9190612068565b3480156102c557600080fd5b506102d96102d436600461207b565b61081f565b6040516001600160a01b03909116815260200161026c565b3480156102fd57600080fd5b5061029561030c3660046120a9565b610846565b34801561031d57600080fd5b5061029561032c3660046120d5565b610960565b34801561033d57600080fd5b506008545b60405190815260200161026c565b34801561035c57600080fd5b5061029561036b3660046120f7565b610973565b34801561037c57600080fd5b5061034260115481565b34801561039257600080fd5b506103a66103a13660046120d5565b6109a4565b604080516001600160a01b03909316835260208301919091520161026c565b3480156103d157600080fd5b506103426103e03660046120a9565b610a50565b3480156103f157600080fd5b50610342610400366004612138565b60156020526000908152604090205481565b34801561041e57600080fd5b5061029561042d366004612155565b610ae6565b34801561043e57600080fd5b50610295610b65565b34801561045357600080fd5b506102956104623660046120f7565b610b77565b34801561047357600080fd5b5061034260105481565b34801561048957600080fd5b5061034261049836600461207b565b610b92565b3480156104a957600080fd5b506102956104b8366004612138565b610c25565b3480156104c957600080fd5b506013546102609060ff1681565b3480156104e357600080fd5b506102956104f2366004612265565b610d43565b34801561050357600080fd5b50600a54600160a01b900460ff16610260565b34801561052257600080fd5b506102d961053136600461207b565b610d5b565b34801561054257600080fd5b50610342600e5481565b34801561055857600080fd5b5061029561056736600461207b565b610dbb565b34801561057857600080fd5b50610342610587366004612138565b610dc8565b34801561059857600080fd5b50610295610e4e565b3480156105ad57600080fd5b50610295610e60565b3480156105c257600080fd5b50600a546001600160a01b03166102d9565b3480156105e057600080fd5b506102ac610e70565b3480156105f557600080fd5b50610260610604366004612138565b60146020526000908152604090205460ff1681565b61029561062736600461207b565b610e7f565b34801561063857600080fd5b506102956106473660046122ae565b611120565b34801561065857600080fd5b506102956106673660046122e3565b61112b565b34801561067857600080fd5b506102ac61068736600461207b565b61115d565b34801561069857600080fd5b50610342600f5481565b3480156106ae57600080fd5b506102956106bd36600461207b565b6111c4565b3480156106ce57600080fd5b506102606106dd366004612363565b6001600160a01b03918216600090815260056020908152604080832093909416825291909152205460ff1690565b34801561071757600080fd5b5061034260125481565b34801561072d57600080fd5b5061029561073c366004612138565b6111d1565b34801561074d57600080fd5b5061029561075c36600461207b565b61124a565b600061076c82611257565b92915050565b61077a61127c565b6013805460ff1916911515919091179055565b60606000805461079c9061239c565b80601f01602080910402602001604051908101604052809291908181526020018280546107c89061239c565b80156108155780601f106107ea57610100808354040283529160200191610815565b820191906000526020600020905b8154815290600101906020018083116107f857829003601f168201915b5050505050905090565b600061082a826112d6565b506000908152600460205260409020546001600160a01b031690565b600061085182610d5b565b9050806001600160a01b0316836001600160a01b0316036108c35760405162461bcd60e51b815260206004820152602160248201527f4552433732313a20617070726f76616c20746f2063757272656e74206f776e656044820152603960f91b60648201526084015b60405180910390fd5b336001600160a01b03821614806108df57506108df81336106dd565b6109515760405162461bcd60e51b815260206004820152603d60248201527f4552433732313a20617070726f76652063616c6c6572206973206e6f7420746f60448201527f6b656e206f776e6572206f7220617070726f76656420666f7220616c6c00000060648201526084016108ba565b61095b8383611335565b505050565b61096861127c565b601191909155601255565b61097d33826113a3565b6109995760405162461bcd60e51b81526004016108ba906123d6565b61095b838383611422565b6000828152600c602090815260408083208151808301909252546001600160a01b038116808352600160a01b9091046001600160601b0316928201929092528291610a19575060408051808201909152600b546001600160a01b0381168252600160a01b90046001600160601b031660208201525b602081015160009061271090610a38906001600160601b031687612439565b610a429190612450565b915196919550909350505050565b6000610a5b83610dc8565b8210610abd5760405162461bcd60e51b815260206004820152602b60248201527f455243373231456e756d657261626c653a206f776e657220696e646578206f7560448201526a74206f6620626f756e647360a81b60648201526084016108ba565b506001600160a01b03919091166000908152600660209081526040808320938352929052205490565b610aee61127c565b60005b82811015610b5f578160146000868685818110610b1057610b10612472565b9050602002016020810190610b259190612138565b6001600160a01b031681526020810191909152604001600020805460ff191691151591909117905580610b5781612488565b915050610af1565b50505050565b610b6d61127c565b610b75611593565b565b61095b8383836040518060200160405280600081525061112b565b6000610b9d60085490565b8210610c005760405162461bcd60e51b815260206004820152602c60248201527f455243373231456e756d657261626c653a20676c6f62616c20696e646578206f60448201526b7574206f6620626f756e647360a01b60648201526084016108ba565b60088281548110610c1357610c13612472565b90600052602060002001549050919050565b610c2d61127c565b4780610c665760405162461bcd60e51b81526020600482015260086024820152674e6f2066756e647360c01b60448201526064016108ba565b6000826001600160a01b03168260405160006040518083038185875af1925050503d8060008114610cb3576040519150601f19603f3d011682016040523d82523d6000602084013e610cb8565b606091505b5050905080610cfb5760405162461bcd60e51b815260206004820152600f60248201526e15da5d1a191c985dc819985a5b1959608a1b60448201526064016108ba565b826001600160a01b03167feaff4b37086828766ad3268786972c0cd24259d4c87a80f9d3963a3c3d999b0d83604051610d3691815260200190565b60405180910390a2505050565b610d4b61127c565b600d610d5782826124ef565b5050565b6000818152600260205260408120546001600160a01b03168061076c5760405162461bcd60e51b8152602060048201526018602482015277115490cdcc8c4e881a5b9d985b1a59081d1bdad95b88125160421b60448201526064016108ba565b610dc361127c565b600f55565b60006001600160a01b038216610e325760405162461bcd60e51b815260206004820152602960248201527f4552433732313a2061646472657373207a65726f206973206e6f7420612076616044820152683634b21037bbb732b960b91b60648201526084016108ba565b506001600160a01b031660009081526003602052604090205490565b610e5661127c565b610b7560006115e8565b610e6861127c565b610b7561163a565b60606001805461079c9061239c565b610e8761167d565b601154421015610ecc5760405162461bcd60e51b815260206004820152601060248201526f135a5b9d081b9bdd081cdd185c9d195960821b60448201526064016108ba565b6012541580610edd57506012544211155b610f165760405162461bcd60e51b815260206004820152600a602482015269135a5b9d08195b99195960b21b60448201526064016108ba565b600f5481610f2360085490565b610f2d91906125af565b1115610f705760405162461bcd60e51b815260206004820152601260248201527145786365656473206d617820737570706c7960701b60448201526064016108ba565b60105433600090815260156020526040902054610f8e9083906125af565b1115610fd35760405162461bcd60e51b8152602060048201526014602482015273115e18d959591cc81dd85b1b195d081b1a5b5a5d60621b60448201526064016108ba565b80600e54610fe19190612439565b3410156110275760405162461bcd60e51b8152602060048201526014602482015273125b9cdd59999a58da595b9d081c185e5b595b9d60621b60448201526064016108ba565b60135460ff1615611083573360009081526014602052604090205460ff166110835760405162461bcd60e51b815260206004820152600f60248201526e139bdd081dda1a5d195b1a5cdd1959608a1b60448201526064016108ba565b60005b818110156110f857600061109960085490565b6110a49060016125af565b90506110b033826116ca565b60405181815233907f30385c845b448a36257a6a1716e6ad2e1bc2cbe333cde1e69fe849ad6511adfe9060200160405180910390a250806110f081612488565b915050611086565b5033600090815260156020526040812080548392906111189084906125af565b909155505050565b610d573383836116e4565b61113533836113a3565b6111515760405162461bcd60e51b81526004016108ba906123d6565b610b5f848484846117b2565b6060611168826112d6565b60006111726117e5565b9050600081511161119257604051806020016040528060008152506111bd565b8061119c846117f4565b6040516020016111ad9291906125c2565b6040516020818303038152906040525b9392505050565b6111cc61127c565b601055565b6111d961127c565b6001600160a01b03811661123e5760405162461bcd60e51b815260206004820152602660248201527f4f776e61626c653a206e6577206f776e657220697320746865207a65726f206160448201526564647265737360d01b60648201526084016108ba565b611247816115e8565b50565b61125261127c565b600e55565b60006001600160e01b0319821663152a902d60e11b148061076c575061076c82611887565b600a546001600160a01b03163314610b755760405162461bcd60e51b815260206004820181905260248201527f4f776e61626c653a2063616c6c6572206973206e6f7420746865206f776e657260448201526064016108ba565b6000818152600260205260409020546001600160a01b03166112475760405162461bcd60e51b8152602060048201526018602482015277115490cdcc8c4e881a5b9d985b1a59081d1bdad95b88125160421b60448201526064016108ba565b600081815260046020526040902080546001600160a01b0319166001600160a01b038416908117909155819061136a82610d5b565b6001600160a01b03167f8c5be1e5ebec7d5bd14f71427d1e84f3dd0314c0f7b2291e5b200ac8c7c3b92560405160405180910390a45050565b6000806113af83610d5b565b9050806001600160a01b0316846001600160a01b031614806113f657506001600160a01b0380821660009081526005602090815260408083209388168352929052205460ff165b8061141a5750836001600160a01b031661140f8461081f565b6001600160a01b0316145b949350505050565b826001600160a01b031661143582610d5b565b6001600160a01b03161461145b5760405162461bcd60e51b81526004016108ba906125f1565b6001600160a01b0382166114bd5760405162461bcd60e51b8152602060048201526024808201527f4552433732313a207472616e7366657220746f20746865207a65726f206164646044820152637265737360e01b60648201526084016108ba565b6114ca83838360016118ac565b826001600160a01b03166114dd82610d5b565b6001600160a01b0316146115035760405162461bcd60e51b81526004016108ba906125f1565b600081815260046020908152604080832080546001600160a01b03199081169091556001600160a01b0387811680865260038552838620805460001901905590871680865283862080546001019055868652600290945282852080549092168417909155905184937fddf252ad1be2c89b69c2b068fc378daa952ba7f163c4a11628f55a4df523b3ef91a4505050565b61159b6119e0565b600a805460ff60a01b191690557f5db9ee0a495bf2e6ff9c91a7834c1ba4fdd244a5e8aa4e537bd38aeae4b073aa335b6040516001600160a01b03909116815260200160405180910390a1565b600a80546001600160a01b038381166001600160a01b0319831681179093556040519116919082907f8be0079c531659141344cd1fd0a4f28419497f9722a3daafe3b4186f6b6457e090600090a35050565b61164261167d565b600a805460ff60a01b1916600160a01b1790557f62e78cea01bee320cd4e420270b5ea74000d11b0c9f74754ebdbfc544b05a2586115cb3390565b600a54600160a01b900460ff1615610b755760405162461bcd60e51b815260206004820152601060248201526f14185d5cd8589b194e881c185d5cd95960821b60448201526064016108ba565b610d57828260405180602001604052806000815250611a30565b816001600160a01b0316836001600160a01b0316036117455760405162461bcd60e51b815260206004820152601960248201527f4552433732313a20617070726f766520746f2063616c6c65720000000000000060448201526064016108ba565b6001600160a01b03838116600081815260056020908152604080832094871680845294825291829020805460ff191686151590811790915591519182527f17307eab39ab6107e8899845ad3d59bd9653f200f220920489ca2b5937696c31910160405180910390a3505050565b6117bd848484611422565b6117c984848484611a63565b610b5f5760405162461bcd60e51b81526004016108ba90612636565b6060600d805461079c9061239c565b6060600061180183611b64565b600101905060008167ffffffffffffffff811115611821576118216121d9565b6040519080825280601f01601f19166020018201604052801561184b576020820181803683370190505b5090508181016020015b600019016f181899199a1a9b1b9c1cb0b131b232b360811b600a86061a8153600a850494508461185557509392505050565b60006001600160e01b0319821663780e9d6360e01b148061076c575061076c82611c3c565b600181111561191b5760405162461bcd60e51b815260206004820152603560248201527f455243373231456e756d657261626c653a20636f6e7365637574697665207472604482015274185b9cd9995c9cc81b9bdd081cdd5c1c1bdc9d1959605a1b60648201526084016108ba565b816001600160a01b0385166119775761197281600880546000838152600960205260408120829055600182018355919091527ff3f7a9fe364faab93b216da50a3214154f22a0a2b415b23a84c8169e8b636ee30155565b61199a565b836001600160a01b0316856001600160a01b03161461199a5761199a8582611c8c565b6001600160a01b0384166119b6576119b181611d29565b6119d9565b846001600160a01b0316846001600160a01b0316146119d9576119d98482611dd8565b5050505050565b600a54600160a01b900460ff16610b755760405162461bcd60e51b815260206004820152601460248201527314185d5cd8589b194e881b9bdd081c185d5cd95960621b60448201526064016108ba565b611a3a8383611e1c565b611a476000848484611a63565b61095b5760405162461bcd60e51b81526004016108ba90612636565b60006001600160a01b0384163b15611b5957604051630a85bd0160e11b81526001600160a01b0385169063150b7a0290611aa7903390899088908890600401612688565b6020604051808303816000875af1925050508015611ae2575060408051601f3d908101601f19168201909252611adf918101906126c5565b60015b611b3f573d808015611b10576040519150601f19603f3d011682016040523d82523d6000602084013e611b15565b606091505b508051600003611b375760405162461bcd60e51b81526004016108ba90612636565b805181602001fd5b6001600160e01b031916630a85bd0160e11b14905061141a565b506001949350505050565b60008072184f03e93ff9f4daa797ed6e38ed64bf6a1f0160401b8310611ba35772184f03e93ff9f4daa797ed6e38ed64bf6a1f0160401b830492506040015b6d04ee2d6d415b85acef81000000008310611bcf576d04ee2d6d415b85acef8100000000830492506020015b662386f26fc100008310611bed57662386f26fc10000830492506010015b6305f5e1008310611c05576305f5e100830492506008015b6127108310611c1957612710830492506004015b60648310611c2b576064830492506002015b600a831061076c5760010192915050565b60006001600160e01b031982166380ac58cd60e01b1480611c6d57506001600160e01b03198216635b5e139f60e01b145b8061076c57506301ffc9a760e01b6001600160e01b031983161461076c565b60006001611c9984610dc8565b611ca391906126e2565b600083815260076020526040902054909150808214611cf6576001600160a01b03841660009081526006602090815260408083208584528252808320548484528184208190558352600790915290208190555b5060009182526007602090815260408084208490556001600160a01b039094168352600681528383209183525290812055565b600854600090611d3b906001906126e2565b60008381526009602052604081205460088054939450909284908110611d6357611d63612472565b906000526020600020015490508060088381548110611d8457611d84612472565b6000918252602080832090910192909255828152600990915260408082208490558582528120556008805480611dbc57611dbc6126f5565b6001900381819060005260206000200160009055905550505050565b6000611de383610dc8565b6001600160a01b039093166000908152600660209081526040808320868452825280832085905593825260079052919091209190915550565b6001600160a01b038216611e725760405162461bcd60e51b815260206004820181905260248201527f4552433732313a206d696e7420746f20746865207a65726f206164647265737360448201526064016108ba565b6000818152600260205260409020546001600160a01b031615611ed75760405162461bcd60e51b815260206004820152601c60248201527f4552433732313a20746f6b656e20616c7265616479206d696e7465640000000060448201526064016108ba565b611ee56000838360016118ac565b6000818152600260205260409020546001600160a01b031615611f4a5760405162461bcd60e51b815260206004820152601c60248201527f4552433732313a20746f6b656e20616c7265616479206d696e7465640000000060448201526064016108ba565b6001600160a01b038216600081815260036020908152604080832080546001019055848352600290915280822080546001600160a01b0319168417905551839291907fddf252ad1be2c89b69c2b068fc378daa952ba7f163c4a11628f55a4df523b3ef908290a45050565b6001600160e01b03198116811461124757600080fd5b600060208284031215611fdd57600080fd5b81356111bd81611fb5565b80358015158114611ff857600080fd5b919050565b60006020828403121561200f57600080fd5b6111bd82611fe8565b60005b8381101561203357818101518382015260200161201b565b50506000910152565b60008151808452612054816020860160208601612018565b601f01601f19169290920160200192915050565b6020815260006111bd602083018461203c565b60006020828403121561208d57600080fd5b5035919050565b6001600160a01b038116811461124757600080fd5b600080604083850312156120bc57600080fd5b82356120c781612094565b946020939093013593505050565b600080604083850312156120e857600080fd5b50508035926020909101359150565b60008060006060848603121561210c57600080fd5b833561211781612094565b9250602084013561212781612094565b929592945050506040919091013590565b60006020828403121561214a57600080fd5b81356111bd81612094565b60008060006040848603121561216a57600080fd5b833567ffffffffffffffff8082111561218257600080fd5b818601915086601f83011261219657600080fd5b8135818111156121a557600080fd5b8760208260051b85010111156121ba57600080fd5b6020928301955093506121d09186019050611fe8565b90509250925092565b634e487b7160e01b600052604160045260246000fd5b600067ffffffffffffffff8084111561220a5761220a6121d9565b604051601f8501601f19908116603f01168101908282118183101715612232576122326121d9565b8160405280935085815286868601111561224b57600080fd5b858560208301376000602087830101525050509392505050565b60006020828403121561227757600080fd5b813567ffffffffffffffff81111561228e57600080fd5b8201601f8101841361229f57600080fd5b61141a848235602084016121ef565b600080604083850312156122c157600080fd5b82356122cc81612094565b91506122da60208401611fe8565b90509250929050565b600080600080608085870312156122f957600080fd5b843561230481612094565b9350602085013561231481612094565b925060408501359150606085013567ffffffffffffffff81111561233757600080fd5b8501601f8101871361234857600080fd5b612357878235602084016121ef565b91505092959194509250565b6000806040838503121561237657600080fd5b823561238181612094565b9150602083013561239181612094565b809150509250929050565b600181811c908216806123b057607f821691505b6020821081036123d057634e487b7160e01b600052602260045260246000fd5b50919050565b6020808252602d908201527f4552433732313a2063616c6c6572206973206e6f7420746f6b656e206f776e6560408201526c1c881bdc88185c1c1c9bdd9959609a1b606082015260800190565b634e487b7160e01b600052601160045260246000fd5b808202811582820484141761076c5761076c612423565b60008261246d57634e487b7160e01b600052601260045260246000fd5b500490565b634e487b7160e01b600052603260045260246000fd5b60006001820161249a5761249a612423565b5060010190565b601f82111561095b57600081815260208120601f850160051c810160208610156124c85750805b601f850160051c820191505b818110156124e7578281556001016124d4565b505050505050565b815167ffffffffffffffff811115612509576125096121d9565b61251d81612517845461239c565b846124a1565b602080601f831160018114612552576000841561253a5750858301515b600019600386901b1c1916600185901b1785556124e7565b600085815260208120601f198616915b8281101561258157888601518255948401946001909101908401612562565b508582101561259f5787850151600019600388901b60f8161c191681555b5050505050600190811b01905550565b8082018082111561076c5761076c612423565b600083516125d4818460208801612018565b8351908301906125e8818360208801612018565b01949350505050565b60208082526025908201527f4552433732313a207472616e736665722066726f6d20696e636f72726563742060408201526437bbb732b960d91b606082015260800190565b60208082526032908201527f4552433732313a207472616e7366657220746f206e6f6e20455243373231526560408201527131b2b4bb32b91034b6b83632b6b2b73a32b960711b606082015260800190565b6001600160a01b03858116825284166020820152604081018390526080606082018190526000906126bb9083018461203c565b9695505050505050565b6000602082840312156126d757600080fd5b81516111bd81611fb5565b8181038181111561076c5761076c612423565b634e487b7160e01b600052603160045260246000fdfea26469706673582212208926b9ee3d230b6c70d8b663e068621f6815b8f10d03857810ea4d21525d3f1f64736f6c6343000814003360806040523480156200001157600080fd5b5060405162002a9538038062002a95833981016040819052620000349162000357565b886200004081620000e3565b506200004c33620000f5565b6003805460ff60a01b191690556006620000678c82620004f1565b506007620000768b82620004f1565b5060088890556009879055600a869055600b859055600c849055600d805460ff19168215151790556001600160a01b03831615801590620000c057506000826001600160601b0316115b15620000d257620000d2838362000147565b5050505050505050505050620005bd565b6002620000f18282620004f1565b5050565b600380546001600160a01b038381166001600160a01b0319831681179093556040519116919082907f8be0079c531659141344cd1fd0a4f28419497f9722a3daafe3b4186f6b6457e090600090a35050565b6127106001600160601b0382161115620001bb5760405162461bcd60e51b815260206004820152602a60248201527f455243323938313a20726f79616c7479206665652077696c6c206578636565646044820152692073616c65507269636560b01b60648201526084015b60405180910390fd5b6001600160a01b038216620002135760405162461bcd60e51b815260206004820152601960248201527f455243323938313a20696e76616c6964207265636569766572000000000000006044820152606401620001b2565b604080518082019091526001600160a01b039092168083526001600160601b039091166020909201829052600160a01b90910217600455565b634e487b7160e01b600052604160045260246000fd5b600082601f8301126200027457600080fd5b81516001600160401b03808211156200029157620002916200024c565b604051601f8301601f19908116603f01168101908282118183101715620002bc57620002bc6200024c565b81604052838152602092508683858801011115620002d957600080fd5b600091505b83821015620002fd5785820183015181830184015290820190620002de565b600093810190920192909252949350505050565b80516001600160a01b03811681146200032957600080fd5b919050565b80516001600160601b03811681146200032957600080fd5b805180151581146200032957600080fd5b60008060008060008060008060008060006101608c8e0312156200037a57600080fd5b8b516001600160401b038111156200039157600080fd5b6200039f8e828f0162000262565b60208e0151909c5090506001600160401b03811115620003be57600080fd5b620003cc8e828f0162000262565b60408e0151909b5090506001600160401b03811115620003eb57600080fd5b620003f98e828f0162000262565b99505060608c0151975060808c0151965060a08c0151955060c08c0151945060e08c015193506200042e6101008d0162000311565b92506200043f6101208d016200032e565b9150620004506101408d0162000346565b90509295989b509295989b9093969950565b600181811c908216806200047757607f821691505b6020821081036200049857634e487b7160e01b600052602260045260246000fd5b50919050565b601f821115620004ec57600081815260208120601f850160051c81016020861015620004c75750805b601f850160051c820191505b81811015620004e857828155600101620004d3565b5050505b505050565b81516001600160401b038111156200050d576200050d6200024c565b62000525816200051e845462000462565b846200049e565b602080601f8311600181146200055d5760008415620005445750858301515b600019600386901b1c1916600185901b178555620004e8565b600085815260208120601f198616915b828110156200058e578886015182559484019460019091019084016200056d565b5085821015620005ad5787850151600019600388901b60f8161c191681555b5050505050600190811b01905550565b6124c880620005cd6000396000f3fe6080604052600436106102035760003560e01c806351fb012d11610118578063a22cb465116100a0578063e985e9c51161006f578063e985e9c5146105d8578063ea2b4ab214610621578063f242432a14610637578063f2fde38b14610657578063f4a0a5281461067757600080fd5b8063a22cb46514610562578063bd85b03914610582578063d5abeb01146105a2578063e268e4d3146105b857600080fd5b8063715018a6116100e7578063715018a6146104cb5780638456cb59146104e05780638da5cb5b146104f557806395d89b411461051d5780639b19251a1461053257600080fd5b806351fb012d1461045c5780635c975abb146104765780636817c76c146104955780636f8b44b0146104ab57600080fd5b8063255e46851161019b5780633c271a051161016a5780633c271a05146103c45780633f4ba83a146103e4578063453c2310146103f95780634e1273f41461040f57806351cff8d91461043c57600080fd5b8063255e4685146103225780632a55205a146103385780632eb2c2d6146103775780633a602b4d1461039757600080fd5b806306fdde03116101d757806306fdde03146102ad5780630e89341c146102cf5780630f867751146102ef5780631b2ef1ca1461030f57600080fd5b8062fdd58e1461020857806301ffc9a71461023b57806302fe53051461026b578063052d9e7e1461028d575b600080fd5b34801561021457600080fd5b506102286102233660046119f1565b610697565b6040519081526020015b60405180910390f35b34801561024757600080fd5b5061025b610256366004611a33565b610730565b6040519015158152602001610232565b34801561027757600080fd5b5061028b610286366004611af8565b61073b565b005b34801561029957600080fd5b5061028b6102a8366004611b5e565b61074f565b3480156102b957600080fd5b506102c261076a565b6040516102329190611bbf565b3480156102db57600080fd5b506102c26102ea366004611bd2565b6107f8565b3480156102fb57600080fd5b5061028b61030a366004611beb565b61088c565b61028b61031d366004611beb565b61089f565b34801561032e57600080fd5b50610228600b5481565b34801561034457600080fd5b50610358610353366004611beb565b610b21565b604080516001600160a01b039093168352602083019190915201610232565b34801561038357600080fd5b5061028b610392366004611cc2565b610bcd565b3480156103a357600080fd5b506102286103b2366004611d70565b600f6020526000908152604090205481565b3480156103d057600080fd5b5061028b6103df366004611d8d565b610c19565b3480156103f057600080fd5b5061028b610c98565b34801561040557600080fd5b50610228600a5481565b34801561041b57600080fd5b5061042f61042a366004611e11565b610caa565b6040516102329190611f19565b34801561044857600080fd5b5061028b610457366004611d70565b610dd4565b34801561046857600080fd5b50600d5461025b9060ff1681565b34801561048257600080fd5b50600354600160a01b900460ff1661025b565b3480156104a157600080fd5b5061022860085481565b3480156104b757600080fd5b5061028b6104c6366004611bd2565b610ef2565b3480156104d757600080fd5b5061028b610eff565b3480156104ec57600080fd5b5061028b610f11565b34801561050157600080fd5b506003546040516001600160a01b039091168152602001610232565b34801561052957600080fd5b506102c2610f21565b34801561053e57600080fd5b5061025b61054d366004611d70565b600e6020526000908152604090205460ff1681565b34801561056e57600080fd5b5061028b61057d366004611f2c565b610f2e565b34801561058e57600080fd5b5061022861059d366004611bd2565b610f3d565b3480156105ae57600080fd5b5061022860095481565b3480156105c457600080fd5b5061028b6105d3366004611bd2565b610f49565b3480156105e457600080fd5b5061025b6105f3366004611f61565b6001600160a01b03918216600090815260016020908152604080832093909416825291909152205460ff1690565b34801561062d57600080fd5b50610228600c5481565b34801561064357600080fd5b5061028b610652366004611f9a565b610f56565b34801561066357600080fd5b5061028b610672366004611d70565b610f9b565b34801561068357600080fd5b5061028b610692366004611bd2565b611011565b60006001600160a01b0383166107075760405162461bcd60e51b815260206004820152602a60248201527f455243313135353a2061646472657373207a65726f206973206e6f742061207660448201526930b634b21037bbb732b960b11b60648201526084015b60405180910390fd5b506000818152602081815260408083206001600160a01b03861684529091529020545b92915050565b600061072a8261101e565b610743611043565b61074c8161109d565b50565b610757611043565b600d805460ff1916911515919091179055565b6006805461077790612003565b80601f01602080910402602001604051908101604052809291908181526020018280546107a390612003565b80156107f05780601f106107c5576101008083540402835291602001916107f0565b820191906000526020600020905b8154815290600101906020018083116107d357829003601f168201915b505050505081565b60606002805461080790612003565b80601f016020809104026020016040519081016040528092919081815260200182805461083390612003565b80156108805780601f1061085557610100808354040283529160200191610880565b820191906000526020600020905b81548152906001019060200180831161086357829003601f168201915b50505050509050919050565b610894611043565b600b91909155600c55565b6108a76110a9565b600b544210156108ec5760405162461bcd60e51b815260206004820152601060248201526f135a5b9d081b9bdd081cdd185c9d195960821b60448201526064016106fe565b600c5415806108fd5750600c544211155b6109365760405162461bcd60e51b815260206004820152600a602482015269135a5b9d08195b99195960b21b60448201526064016106fe565b6009548161094384610f3d565b61094d9190612053565b11156109905760405162461bcd60e51b815260206004820152601260248201527145786365656473206d617820737570706c7960701b60448201526064016106fe565b600a54336000908152600f60205260409020546109ae908390612053565b11156109f35760405162461bcd60e51b8152602060048201526014602482015273115e18d959591cc81dd85b1b195d081b1a5b5a5d60621b60448201526064016106fe565b80600854610a019190612066565b341015610a475760405162461bcd60e51b8152602060048201526014602482015273125b9cdd59999a58da595b9d081c185e5b595b9d60621b60448201526064016106fe565b600d5460ff1615610aa357336000908152600e602052604090205460ff16610aa35760405162461bcd60e51b815260206004820152600f60248201526e139bdd081dda1a5d195b1a5cdd1959608a1b60448201526064016106fe565b610abe338383604051806020016040528060008152506110f6565b336000908152600f602052604081208054839290610add908490612053565b9091555050604080518381526020810183905233917f25b428dfde728ccfaddad7e29e4ac23c24ed7fd1a6e3e3f91894a9a073f5dfff910160405180910390a25050565b60008281526005602090815260408083208151808301909252546001600160a01b038116808352600160a01b9091046001600160601b0316928201929092528291610b965750604080518082019091526004546001600160a01b0381168252600160a01b90046001600160601b031660208201525b602081015160009061271090610bb5906001600160601b031687612066565b610bbf919061207d565b915196919550909350505050565b6001600160a01b038516331480610be95750610be985336105f3565b610c055760405162461bcd60e51b81526004016106fe9061209f565b610c12858585858561120a565b5050505050565b610c21611043565b60005b82811015610c925781600e6000868685818110610c4357610c436120ed565b9050602002016020810190610c589190611d70565b6001600160a01b031681526020810191909152604001600020805460ff191691151591909117905580610c8a81612103565b915050610c24565b50505050565b610ca0611043565b610ca86113e7565b565b60608151835114610d0f5760405162461bcd60e51b815260206004820152602960248201527f455243313135353a206163636f756e747320616e6420696473206c656e677468604482015268040dad2e6dac2e8c6d60bb1b60648201526084016106fe565b6000835167ffffffffffffffff811115610d2b57610d2b611a57565b604051908082528060200260200182016040528015610d54578160200160208202803683370190505b50905060005b8451811015610dcc57610d9f858281518110610d7857610d786120ed565b6020026020010151858381518110610d9257610d926120ed565b6020026020010151610697565b828281518110610db157610db16120ed565b6020908102919091010152610dc581612103565b9050610d5a565b509392505050565b610ddc611043565b4780610e155760405162461bcd60e51b81526020600482015260086024820152674e6f2066756e647360c01b60448201526064016106fe565b6000826001600160a01b03168260405160006040518083038185875af1925050503d8060008114610e62576040519150601f19603f3d011682016040523d82523d6000602084013e610e67565b606091505b5050905080610eaa5760405162461bcd60e51b815260206004820152600f60248201526e15da5d1a191c985dc819985a5b1959608a1b60448201526064016106fe565b826001600160a01b03167feaff4b37086828766ad3268786972c0cd24259d4c87a80f9d3963a3c3d999b0d83604051610ee591815260200190565b60405180910390a2505050565b610efa611043565b600955565b610f07611043565b610ca8600061143c565b610f19611043565b610ca861148e565b6007805461077790612003565b610f393383836114d1565b5050565b600061072a3083610697565b610f51611043565b600a55565b6001600160a01b038516331480610f725750610f7285336105f3565b610f8e5760405162461bcd60e51b81526004016106fe9061209f565b610c1285858585856115b1565b610fa3611043565b6001600160a01b0381166110085760405162461bcd60e51b815260206004820152602660248201527f4f776e61626c653a206e6577206f776e657220697320746865207a65726f206160448201526564647265737360d01b60648201526084016106fe565b61074c8161143c565b611019611043565b600855565b60006001600160e01b0319821663152a902d60e11b148061072a575061072a826116db565b6003546001600160a01b03163314610ca85760405162461bcd60e51b815260206004820181905260248201527f4f776e61626c653a2063616c6c6572206973206e6f7420746865206f776e657260448201526064016106fe565b6002610f398282612167565b600354600160a01b900460ff1615610ca85760405162461bcd60e51b815260206004820152601060248201526f14185d5cd8589b194e881c185d5cd95960821b60448201526064016106fe565b6001600160a01b0384166111565760405162461bcd60e51b815260206004820152602160248201527f455243313135353a206d696e7420746f20746865207a65726f206164647265736044820152607360f81b60648201526084016106fe565b3360006111628561172b565b9050600061116f8561172b565b90506000868152602081815260408083206001600160a01b038b168452909152812080548792906111a1908490612053565b909155505060408051878152602081018790526001600160a01b03808a1692600092918716917fc3d58168c5ae7397731d063d5bbf3d657854427343f4c083240f7aacaa2d0f62910160405180910390a461120183600089898989611776565b50505050505050565b815183511461126c5760405162461bcd60e51b815260206004820152602860248201527f455243313135353a2069647320616e6420616d6f756e7473206c656e677468206044820152670dad2e6dac2e8c6d60c31b60648201526084016106fe565b6001600160a01b0384166112925760405162461bcd60e51b81526004016106fe90612227565b3360005b84518110156113795760008582815181106112b3576112b36120ed565b6020026020010151905060008583815181106112d1576112d16120ed565b602090810291909101810151600084815280835260408082206001600160a01b038e1683529093529190912054909150818110156113215760405162461bcd60e51b81526004016106fe9061226c565b6000838152602081815260408083206001600160a01b038e8116855292528083208585039055908b1682528120805484929061135e908490612053565b925050819055505050508061137290612103565b9050611296565b50846001600160a01b0316866001600160a01b0316826001600160a01b03167f4a39dc06d4c0dbc64b70af90fd698a233a518aa5d07e595d983b8c0526c8f7fb87876040516113c99291906122b6565b60405180910390a46113df8187878787876118d1565b505050505050565b6113ef61198c565b6003805460ff60a01b191690557f5db9ee0a495bf2e6ff9c91a7834c1ba4fdd244a5e8aa4e537bd38aeae4b073aa335b6040516001600160a01b03909116815260200160405180910390a1565b600380546001600160a01b038381166001600160a01b0319831681179093556040519116919082907f8be0079c531659141344cd1fd0a4f28419497f9722a3daafe3b4186f6b6457e090600090a35050565b6114966110a9565b6003805460ff60a01b1916600160a01b1790557f62e78cea01bee320cd4e420270b5ea74000d11b0c9f74754ebdbfc544b05a25861141f3390565b816001600160a01b0316836001600160a01b0316036115445760405162461bcd60e51b815260206004820152602960248201527f455243313135353a2073657474696e6720617070726f76616c20737461747573604482015268103337b91039b2b63360b91b60648201526084016106fe565b6001600160a01b03838116600081815260016020908152604080832094871680845294825291829020805460ff191686151590811790915591519182527f17307eab39ab6107e8899845ad3d59bd9653f200f220920489ca2b5937696c31910160405180910390a3505050565b6001600160a01b0384166115d75760405162461bcd60e51b81526004016106fe90612227565b3360006115e38561172b565b905060006115f08561172b565b90506000868152602081815260408083206001600160a01b038c168452909152902054858110156116335760405162461bcd60e51b81526004016106fe9061226c565b6000878152602081815260408083206001600160a01b038d8116855292528083208985039055908a16825281208054889290611670908490612053565b909155505060408051888152602081018890526001600160a01b03808b16928c821692918816917fc3d58168c5ae7397731d063d5bbf3d657854427343f4c083240f7aacaa2d0f62910160405180910390a46116d0848a8a8a8a8a611776565b505050505050505050565b60006001600160e01b03198216636cdb3d1360e11b148061170c57506001600160e01b031982166303a24d0760e21b145b8061072a57506301ffc9a760e01b6001600160e01b031983161461072a565b60408051600180825281830190925260609160009190602080830190803683370190505090508281600081518110611765576117656120ed565b602090810291909101015292915050565b6001600160a01b0384163b156113df5760405163f23a6e6160e01b81526001600160a01b0385169063f23a6e61906117ba90899089908890889088906004016122e4565b6020604051808303816000875af19250505080156117f5575060408051601f3d908101601f191682019092526117f291810190612329565b60015b6118a157611801612346565b806308c379a00361183a5750611815612362565b80611820575061183c565b8060405162461bcd60e51b81526004016106fe9190611bbf565b505b60405162461bcd60e51b815260206004820152603460248201527f455243313135353a207472616e7366657220746f206e6f6e2d455243313135356044820152732932b1b2b4bb32b91034b6b83632b6b2b73a32b960611b60648201526084016106fe565b6001600160e01b0319811663f23a6e6160e01b146112015760405162461bcd60e51b81526004016106fe906123ec565b6001600160a01b0384163b156113df5760405163bc197c8160e01b81526001600160a01b0385169063bc197c81906119159089908990889088908890600401612434565b6020604051808303816000875af1925050508015611950575060408051601f3d908101601f1916820190925261194d91810190612329565b60015b61195c57611801612346565b6001600160e01b0319811663bc197c8160e01b146112015760405162461bcd60e51b81526004016106fe906123ec565b600354600160a01b900460ff16610ca85760405162461bcd60e51b815260206004820152601460248201527314185d5cd8589b194e881b9bdd081c185d5cd95960621b60448201526064016106fe565b6001600160a01b038116811461074c57600080fd5b60008060408385031215611a0457600080fd5b8235611a0f816119dc565b946020939093013593505050565b6001600160e01b03198116811461074c57600080fd5b600060208284031215611a4557600080fd5b8135611a5081611a1d565b9392505050565b634e487b7160e01b600052604160045260246000fd5b601f8201601f1916810167ffffffffffffffff81118282101715611a9357611a93611a57565b6040525050565b600067ffffffffffffffff831115611ab457611ab4611a57565b604051611acb601f8501601f191660200182611a6d565b809150838152848484011115611ae057600080fd5b83836020830137600060208583010152509392505050565b600060208284031215611b0a57600080fd5b813567ffffffffffffffff811115611b2157600080fd5b8201601f81018413611b3257600080fd5b611b4184823560208401611a9a565b949350505050565b80358015158114611b5957600080fd5b919050565b600060208284031215611b7057600080fd5b611a5082611b49565b6000815180845260005b81811015611b9f57602081850181015186830182015201611b83565b506000602082860101526020601f19601f83011685010191505092915050565b602081526000611a506020830184611b79565b600060208284031215611be457600080fd5b5035919050565b60008060408385031215611bfe57600080fd5b50508035926020909101359150565b600067ffffffffffffffff821115611c2757611c27611a57565b5060051b60200190565b600082601f830112611c4257600080fd5b81356020611c4f82611c0d565b604051611c5c8282611a6d565b83815260059390931b8501820192828101915086841115611c7c57600080fd5b8286015b84811015611c975780358352918301918301611c80565b509695505050505050565b600082601f830112611cb357600080fd5b611a5083833560208501611a9a565b600080600080600060a08688031215611cda57600080fd5b8535611ce5816119dc565b94506020860135611cf5816119dc565b9350604086013567ffffffffffffffff80821115611d1257600080fd5b611d1e89838a01611c31565b94506060880135915080821115611d3457600080fd5b611d4089838a01611c31565b93506080880135915080821115611d5657600080fd5b50611d6388828901611ca2565b9150509295509295909350565b600060208284031215611d8257600080fd5b8135611a50816119dc565b600080600060408486031215611da257600080fd5b833567ffffffffffffffff80821115611dba57600080fd5b818601915086601f830112611dce57600080fd5b813581811115611ddd57600080fd5b8760208260051b8501011115611df257600080fd5b602092830195509350611e089186019050611b49565b90509250925092565b60008060408385031215611e2457600080fd5b823567ffffffffffffffff80821115611e3c57600080fd5b818501915085601f830112611e5057600080fd5b81356020611e5d82611c0d565b604051611e6a8282611a6d565b83815260059390931b8501820192828101915089841115611e8a57600080fd5b948201945b83861015611eb1578535611ea2816119dc565b82529482019490820190611e8f565b96505086013592505080821115611ec757600080fd5b50611ed485828601611c31565b9150509250929050565b600081518084526020808501945080840160005b83811015611f0e57815187529582019590820190600101611ef2565b509495945050505050565b602081526000611a506020830184611ede565b60008060408385031215611f3f57600080fd5b8235611f4a816119dc565b9150611f5860208401611b49565b90509250929050565b60008060408385031215611f7457600080fd5b8235611f7f816119dc565b91506020830135611f8f816119dc565b809150509250929050565b600080600080600060a08688031215611fb257600080fd5b8535611fbd816119dc565b94506020860135611fcd816119dc565b93506040860135925060608601359150608086013567ffffffffffffffff811115611ff757600080fd5b611d6388828901611ca2565b600181811c9082168061201757607f821691505b60208210810361203757634e487b7160e01b600052602260045260246000fd5b50919050565b634e487b7160e01b600052601160045260246000fd5b8082018082111561072a5761072a61203d565b808202811582820484141761072a5761072a61203d565b60008261209a57634e487b7160e01b600052601260045260246000fd5b500490565b6020808252602e908201527f455243313135353a2063616c6c6572206973206e6f7420746f6b656e206f776e60408201526d195c881bdc88185c1c1c9bdd995960921b606082015260800190565b634e487b7160e01b600052603260045260246000fd5b6000600182016121155761211561203d565b5060010190565b601f82111561216257600081815260208120601f850160051c810160208610156121435750805b601f850160051c820191505b818110156113df5782815560010161214f565b505050565b815167ffffffffffffffff81111561218157612181611a57565b6121958161218f8454612003565b8461211c565b602080601f8311600181146121ca57600084156121b25750858301515b600019600386901b1c1916600185901b1785556113df565b600085815260208120601f198616915b828110156121f9578886015182559484019460019091019084016121da565b50858210156122175787850151600019600388901b60f8161c191681555b5050505050600190811b01905550565b60208082526025908201527f455243313135353a207472616e7366657220746f20746865207a65726f206164604082015264647265737360d81b606082015260800190565b6020808252602a908201527f455243313135353a20696e73756666696369656e742062616c616e636520666f60408201526939103a3930b739b332b960b11b606082015260800190565b6040815260006122c96040830185611ede565b82810360208401526122db8185611ede565b95945050505050565b6001600160a01b03868116825285166020820152604081018490526060810183905260a06080820181905260009061231e90830184611b79565b979650505050505050565b60006020828403121561233b57600080fd5b8151611a5081611a1d565b600060033d111561235f5760046000803e5060005160e01c5b90565b600060443d10156123705790565b6040516003193d81016004833e81513d67ffffffffffffffff81602484011181841117156123a057505050505090565b82850191508151818111156123b85750505050505090565b843d87010160208285010111156123d25750505050505090565b6123e160208286010187611a6d565b509095945050505050565b60208082526028908201527f455243313135353a204552433131353552656365697665722072656a656374656040820152676420746f6b656e7360c01b606082015260800190565b6001600160a01b0386811682528516602082015260a06040820181905260009061246090830186611ede565b82810360608401526124728186611ede565b905082810360808401526124868185611b79565b9897505050505050505056fea2646970667358221220962d561eb7d13241b67e37ee34a2a0948e9ebd6a5b919a6bb2c2788529db024164736f6c63430008140033a2646970667358221220fbbda534e5ee2a5973986e9ca8acb3b37e408d33ca4af5f19ca80e9a7c7e1c3164736f6c63430008140033",
  "linkReferences": {},
  "deployedLinkReferences": {}
}